{
  "contractName": "KudosMinter",
  "abi": [
    {
      "inputs": [],
      "stateMutability": "nonpayable",
      "type": "constructor"
    },
    {
      "anonymous": false,
      "inputs": [
        {
          "indexed": true,
          "internalType": "address",
          "name": "owner",
          "type": "address"
        },
        {
          "indexed": true,
          "internalType": "address",
          "name": "approved",
          "type": "address"
        },
        {
          "indexed": true,
          "internalType": "uint256",
          "name": "tokenId",
          "type": "uint256"
        }
      ],
      "name": "Approval",
      "type": "event"
    },
    {
      "anonymous": false,
      "inputs": [
        {
          "indexed": true,
          "internalType": "address",
          "name": "owner",
          "type": "address"
        },
        {
          "indexed": true,
          "internalType": "address",
          "name": "operator",
          "type": "address"
        },
        {
          "indexed": false,
          "internalType": "bool",
          "name": "approved",
          "type": "bool"
        }
      ],
      "name": "ApprovalForAll",
      "type": "event"
    },
    {
      "anonymous": false,
      "inputs": [
        {
          "indexed": true,
          "internalType": "address",
          "name": "previousOwner",
          "type": "address"
        },
        {
          "indexed": true,
          "internalType": "address",
          "name": "newOwner",
          "type": "address"
        }
      ],
      "name": "OwnershipTransferred",
      "type": "event"
    },
    {
      "anonymous": false,
      "inputs": [
        {
          "indexed": true,
          "internalType": "address",
          "name": "from",
          "type": "address"
        },
        {
          "indexed": true,
          "internalType": "address",
          "name": "to",
          "type": "address"
        },
        {
          "indexed": true,
          "internalType": "uint256",
          "name": "tokenId",
          "type": "uint256"
        }
      ],
      "name": "Transfer",
      "type": "event"
    },
    {
      "inputs": [
        {
          "internalType": "address",
          "name": "to",
          "type": "address"
        },
        {
          "internalType": "uint256",
          "name": "tokenId",
          "type": "uint256"
        }
      ],
      "name": "approve",
      "outputs": [],
      "stateMutability": "nonpayable",
      "type": "function"
    },
    {
      "inputs": [
        {
          "internalType": "address",
          "name": "owner",
          "type": "address"
        }
      ],
      "name": "balanceOf",
      "outputs": [
        {
          "internalType": "uint256",
          "name": "",
          "type": "uint256"
        }
      ],
      "stateMutability": "view",
      "type": "function"
    },
    {
      "inputs": [
        {
          "internalType": "uint256",
          "name": "tokenId",
          "type": "uint256"
        }
      ],
      "name": "getApproved",
      "outputs": [
        {
          "internalType": "address",
          "name": "",
          "type": "address"
        }
      ],
      "stateMutability": "view",
      "type": "function"
    },
    {
      "inputs": [
        {
          "internalType": "address",
          "name": "owner",
          "type": "address"
        },
        {
          "internalType": "address",
          "name": "operator",
          "type": "address"
        }
      ],
      "name": "isApprovedForAll",
      "outputs": [
        {
          "internalType": "bool",
          "name": "",
          "type": "bool"
        }
      ],
      "stateMutability": "view",
      "type": "function"
    },
    {
      "inputs": [],
      "name": "name",
      "outputs": [
        {
          "internalType": "string",
          "name": "",
          "type": "string"
        }
      ],
      "stateMutability": "view",
      "type": "function"
    },
    {
      "inputs": [],
      "name": "owner",
      "outputs": [
        {
          "internalType": "address",
          "name": "",
          "type": "address"
        }
      ],
      "stateMutability": "view",
      "type": "function"
    },
    {
      "inputs": [
        {
          "internalType": "uint256",
          "name": "tokenId",
          "type": "uint256"
        }
      ],
      "name": "ownerOf",
      "outputs": [
        {
          "internalType": "address",
          "name": "",
          "type": "address"
        }
      ],
      "stateMutability": "view",
      "type": "function"
    },
    {
      "inputs": [],
      "name": "renounceOwnership",
      "outputs": [],
      "stateMutability": "nonpayable",
      "type": "function"
    },
    {
      "inputs": [
        {
          "internalType": "address",
          "name": "from",
          "type": "address"
        },
        {
          "internalType": "address",
          "name": "to",
          "type": "address"
        },
        {
          "internalType": "uint256",
          "name": "tokenId",
          "type": "uint256"
        }
      ],
      "name": "safeTransferFrom",
      "outputs": [],
      "stateMutability": "nonpayable",
      "type": "function"
    },
    {
      "inputs": [
        {
          "internalType": "address",
          "name": "from",
          "type": "address"
        },
        {
          "internalType": "address",
          "name": "to",
          "type": "address"
        },
        {
          "internalType": "uint256",
          "name": "tokenId",
          "type": "uint256"
        },
        {
          "internalType": "bytes",
          "name": "data",
          "type": "bytes"
        }
      ],
      "name": "safeTransferFrom",
      "outputs": [],
      "stateMutability": "nonpayable",
      "type": "function"
    },
    {
      "inputs": [
        {
          "internalType": "address",
          "name": "operator",
          "type": "address"
        },
        {
          "internalType": "bool",
          "name": "approved",
          "type": "bool"
        }
      ],
      "name": "setApprovalForAll",
      "outputs": [],
      "stateMutability": "nonpayable",
      "type": "function"
    },
    {
      "inputs": [
        {
          "internalType": "bytes4",
          "name": "interfaceId",
          "type": "bytes4"
        }
      ],
      "name": "supportsInterface",
      "outputs": [
        {
          "internalType": "bool",
          "name": "",
          "type": "bool"
        }
      ],
      "stateMutability": "view",
      "type": "function"
    },
    {
      "inputs": [],
      "name": "symbol",
      "outputs": [
        {
          "internalType": "string",
          "name": "",
          "type": "string"
        }
      ],
      "stateMutability": "view",
      "type": "function"
    },
    {
      "inputs": [
        {
          "internalType": "uint256",
          "name": "index",
          "type": "uint256"
        }
      ],
      "name": "tokenByIndex",
      "outputs": [
        {
          "internalType": "uint256",
          "name": "",
          "type": "uint256"
        }
      ],
      "stateMutability": "view",
      "type": "function"
    },
    {
      "inputs": [
        {
          "internalType": "address",
          "name": "owner",
          "type": "address"
        },
        {
          "internalType": "uint256",
          "name": "index",
          "type": "uint256"
        }
      ],
      "name": "tokenOfOwnerByIndex",
      "outputs": [
        {
          "internalType": "uint256",
          "name": "",
          "type": "uint256"
        }
      ],
      "stateMutability": "view",
      "type": "function"
    },
    {
      "inputs": [
        {
          "internalType": "uint256",
          "name": "tokenId",
          "type": "uint256"
        }
      ],
      "name": "tokenURI",
      "outputs": [
        {
          "internalType": "string",
          "name": "",
          "type": "string"
        }
      ],
      "stateMutability": "view",
      "type": "function"
    },
    {
      "inputs": [],
      "name": "totalSupply",
      "outputs": [
        {
          "internalType": "uint256",
          "name": "",
          "type": "uint256"
        }
      ],
      "stateMutability": "view",
      "type": "function"
    },
    {
      "inputs": [
        {
          "internalType": "address",
          "name": "from",
          "type": "address"
        },
        {
          "internalType": "address",
          "name": "to",
          "type": "address"
        },
        {
          "internalType": "uint256",
          "name": "tokenId",
          "type": "uint256"
        }
      ],
      "name": "transferFrom",
      "outputs": [],
      "stateMutability": "nonpayable",
      "type": "function"
    },
    {
      "inputs": [
        {
          "internalType": "address",
          "name": "newOwner",
          "type": "address"
        }
      ],
      "name": "transferOwnership",
      "outputs": [],
      "stateMutability": "nonpayable",
      "type": "function"
    },
    {
      "inputs": [
        {
          "internalType": "address",
          "name": "reciever",
          "type": "address"
        }
      ],
      "name": "mint",
      "outputs": [],
      "stateMutability": "nonpayable",
      "type": "function"
    },
    {
      "inputs": [
        {
          "internalType": "address",
          "name": "newMinter",
          "type": "address"
        }
      ],
      "name": "setMinter",
      "outputs": [],
      "stateMutability": "nonpayable",
      "type": "function"
    },
    {
      "inputs": [
        {
          "internalType": "string",
          "name": "baseURIStorage",
          "type": "string"
        }
      ],
      "name": "setBaseURI",
      "outputs": [],
      "stateMutability": "nonpayable",
      "type": "function"
    }
  ],
  "bytecode": "0x60806040523480156200001157600080fd5b506040518060400160405280600581526020017f4b75646f730000000000000000000000000000000000000000000000000000008152506040518060400160405280600481526020017f4b55444f0000000000000000000000000000000000000000000000000000000081525081600090805190602001906200009692919062000249565b508060019080519060200190620000af92919062000249565b505050620000d2620000c66200017b60201b60201c565b6200018360201b60201c565b6040518060400160405280601081526020017f68747470733a2f2f746573742e636f6d00000000000000000000000000000000815250600c90805190602001906200011f92919062000249565b50731c9e4a7636ea865c8d3476722bc93cadfd37ead1600b60006101000a81548173ffffffffffffffffffffffffffffffffffffffff021916908373ffffffffffffffffffffffffffffffffffffffff1602179055506200035e565b600033905090565b6000600a60009054906101000a900473ffffffffffffffffffffffffffffffffffffffff16905081600a60006101000a81548173ffffffffffffffffffffffffffffffffffffffff021916908373ffffffffffffffffffffffffffffffffffffffff1602179055508173ffffffffffffffffffffffffffffffffffffffff168173ffffffffffffffffffffffffffffffffffffffff167f8be0079c531659141344cd1fd0a4f28419497f9722a3daafe3b4186f6b6457e060405160405180910390a35050565b828054620002579062000328565b90600052602060002090601f0160209004810192826200027b5760008555620002c7565b82601f106200029657805160ff1916838001178555620002c7565b82800160010185558215620002c7579182015b82811115620002c6578251825591602001919060010190620002a9565b5b509050620002d69190620002da565b5090565b5b80821115620002f5576000816000905550600101620002db565b5090565b7f4e487b7100000000000000000000000000000000000000000000000000000000600052602260045260246000fd5b600060028204905060018216806200034157607f821691505b60208210811415620003585762000357620002f9565b5b50919050565b613423806200036e6000396000f3fe608060405234801561001057600080fd5b50600436106101425760003560e01c80636a627842116100b8578063a22cb4651161007c578063a22cb46514610375578063b88d4fde14610391578063c87b56dd146103ad578063e985e9c5146103dd578063f2fde38b1461040d578063fca3b5aa1461042957610142565b80636a627842146102e357806370a08231146102ff578063715018a61461032f5780638da5cb5b1461033957806395d89b411461035757610142565b806323b872dd1161010a57806323b872dd146101ff5780632f745c591461021b57806342842e0e1461024b5780634f6ccce71461026757806355f804b3146102975780636352211e146102b357610142565b806301ffc9a71461014757806306fdde0314610177578063081812fc14610195578063095ea7b3146101c557806318160ddd146101e1575b600080fd5b610161600480360381019061015c9190612260565b610445565b60405161016e91906122a8565b60405180910390f35b61017f6104bf565b60405161018c919061235c565b60405180910390f35b6101af60048036038101906101aa91906123b4565b610551565b6040516101bc9190612422565b60405180910390f35b6101df60048036038101906101da9190612469565b610597565b005b6101e96106af565b6040516101f691906124b8565b60405180910390f35b610219600480360381019061021491906124d3565b6106bc565b005b61023560048036038101906102309190612469565b61071c565b60405161024291906124b8565b60405180910390f35b610265600480360381019061026091906124d3565b6107c1565b005b610281600480360381019061027c91906123b4565b6107e1565b60405161028e91906124b8565b60405180910390f35b6102b160048036038101906102ac919061265b565b610852565b005b6102cd60048036038101906102c891906123b4565b610874565b6040516102da9190612422565b60405180910390f35b6102fd60048036038101906102f891906126a4565b6108fb565b005b610319600480360381019061031491906126a4565b61091b565b60405161032691906124b8565b60405180910390f35b6103376109d3565b005b6103416109e7565b60405161034e9190612422565b60405180910390f35b61035f610a11565b60405161036c919061235c565b60405180910390f35b61038f600480360381019061038a91906126fd565b610aa3565b005b6103ab60048036038101906103a691906127de565b610ab9565b005b6103c760048036038101906103c291906123b4565b610b1b565b6040516103d4919061235c565b60405180910390f35b6103f760048036038101906103f29190612861565b610b83565b60405161040491906122a8565b60405180910390f35b610427600480360381019061042291906126a4565b610c17565b005b610443600480360381019061043e91906126a4565b610c9b565b005b60007f780e9d63000000000000000000000000000000000000000000000000000000007bffffffffffffffffffffffffffffffffffffffffffffffffffffffff1916827bffffffffffffffffffffffffffffffffffffffffffffffffffffffff191614806104b857506104b782610ce7565b5b9050919050565b6060600080546104ce906128d0565b80601f01602080910402602001604051908101604052809291908181526020018280546104fa906128d0565b80156105475780601f1061051c57610100808354040283529160200191610547565b820191906000526020600020905b81548152906001019060200180831161052a57829003601f168201915b5050505050905090565b600061055c82610dc9565b6004600083815260200190815260200160002060009054906101000a900473ffffffffffffffffffffffffffffffffffffffff169050919050565b60006105a282610874565b90508073ffffffffffffffffffffffffffffffffffffffff168373ffffffffffffffffffffffffffffffffffffffff161415610613576040517f08c379a000000000000000000000000000000000000000000000000000000000815260040161060a90612974565b60405180910390fd5b8073ffffffffffffffffffffffffffffffffffffffff16610632610e14565b73ffffffffffffffffffffffffffffffffffffffff16148061066157506106608161065b610e14565b610b83565b5b6106a0576040517f08c379a000000000000000000000000000000000000000000000000000000000815260040161069790612a06565b60405180910390fd5b6106aa8383610e1c565b505050565b6000600880549050905090565b6106cd6106c7610e14565b82610ed5565b61070c576040517f08c379a000000000000000000000000000000000000000000000000000000000815260040161070390612a98565b60405180910390fd5b610717838383610f6a565b505050565b60006107278361091b565b8210610768576040517f08c379a000000000000000000000000000000000000000000000000000000000815260040161075f90612b2a565b60405180910390fd5b600660008473ffffffffffffffffffffffffffffffffffffffff1673ffffffffffffffffffffffffffffffffffffffff168152602001908152602001600020600083815260200190815260200160002054905092915050565b6107dc83838360405180602001604052806000815250610ab9565b505050565b60006107eb6106af565b821061082c576040517f08c379a000000000000000000000000000000000000000000000000000000000815260040161082390612bbc565b60405180910390fd5b600882815481106108405761083f612bdc565b5b90600052602060002001549050919050565b61085a611264565b80600c9080519060200190610870929190612151565b5050565b600080610880836112e2565b9050600073ffffffffffffffffffffffffffffffffffffffff168173ffffffffffffffffffffffffffffffffffffffff1614156108f2576040517f08c379a00000000000000000000000000000000000000000000000000000000081526004016108e990612c57565b60405180910390fd5b80915050919050565b6109188160016109096106af565b6109139190612ca6565b61131f565b50565b60008073ffffffffffffffffffffffffffffffffffffffff168273ffffffffffffffffffffffffffffffffffffffff16141561098c576040517f08c379a000000000000000000000000000000000000000000000000000000000815260040161098390612d6e565b60405180910390fd5b600360008373ffffffffffffffffffffffffffffffffffffffff1673ffffffffffffffffffffffffffffffffffffffff168152602001908152602001600020549050919050565b6109db611264565b6109e5600061153d565b565b6000600a60009054906101000a900473ffffffffffffffffffffffffffffffffffffffff16905090565b606060018054610a20906128d0565b80601f0160208091040260200160405190810160405280929190818152602001828054610a4c906128d0565b8015610a995780601f10610a6e57610100808354040283529160200191610a99565b820191906000526020600020905b815481529060010190602001808311610a7c57829003601f168201915b5050505050905090565b610ab5610aae610e14565b8383611603565b5050565b610aca610ac4610e14565b83610ed5565b610b09576040517f08c379a0000000000000000000000000000000000000000000000000000000008152600401610b0090612a98565b60405180910390fd5b610b1584848484611770565b50505050565b6060610b2682610dc9565b6000610b306117cc565b90506000815111610b505760405180602001604052806000815250610b7b565b80610b5a8461185e565b604051602001610b6b929190612dca565b6040516020818303038152906040525b915050919050565b6000600560008473ffffffffffffffffffffffffffffffffffffffff1673ffffffffffffffffffffffffffffffffffffffff16815260200190815260200160002060008373ffffffffffffffffffffffffffffffffffffffff1673ffffffffffffffffffffffffffffffffffffffff16815260200190815260200160002060009054906101000a900460ff16905092915050565b610c1f611264565b600073ffffffffffffffffffffffffffffffffffffffff168173ffffffffffffffffffffffffffffffffffffffff161415610c8f576040517f08c379a0000000000000000000000000000000000000000000000000000000008152600401610c8690612e60565b60405180910390fd5b610c988161153d565b50565b610ca3611264565b80600b60006101000a81548173ffffffffffffffffffffffffffffffffffffffff021916908373ffffffffffffffffffffffffffffffffffffffff16021790555050565b60007f80ac58cd000000000000000000000000000000000000000000000000000000007bffffffffffffffffffffffffffffffffffffffffffffffffffffffff1916827bffffffffffffffffffffffffffffffffffffffffffffffffffffffff19161480610db257507f5b5e139f000000000000000000000000000000000000000000000000000000007bffffffffffffffffffffffffffffffffffffffffffffffffffffffff1916827bffffffffffffffffffffffffffffffffffffffffffffffffffffffff1916145b80610dc25750610dc182611936565b5b9050919050565b610dd2816119a0565b610e11576040517f08c379a0000000000000000000000000000000000000000000000000000000008152600401610e0890612c57565b60405180910390fd5b50565b600033905090565b816004600083815260200190815260200160002060006101000a81548173ffffffffffffffffffffffffffffffffffffffff021916908373ffffffffffffffffffffffffffffffffffffffff160217905550808273ffffffffffffffffffffffffffffffffffffffff16610e8f83610874565b73ffffffffffffffffffffffffffffffffffffffff167f8c5be1e5ebec7d5bd14f71427d1e84f3dd0314c0f7b2291e5b200ac8c7c3b92560405160405180910390a45050565b600080610ee183610874565b90508073ffffffffffffffffffffffffffffffffffffffff168473ffffffffffffffffffffffffffffffffffffffff161480610f235750610f228185610b83565b5b80610f6157508373ffffffffffffffffffffffffffffffffffffffff16610f4984610551565b73ffffffffffffffffffffffffffffffffffffffff16145b91505092915050565b8273ffffffffffffffffffffffffffffffffffffffff16610f8a82610874565b73ffffffffffffffffffffffffffffffffffffffff1614610fe0576040517f08c379a0000000000000000000000000000000000000000000000000000000008152600401610fd790612ef2565b60405180910390fd5b600073ffffffffffffffffffffffffffffffffffffffff168273ffffffffffffffffffffffffffffffffffffffff161415611050576040517f08c379a000000000000000000000000000000000000000000000000000000000815260040161104790612f84565b60405180910390fd5b61105d83838360016119e1565b8273ffffffffffffffffffffffffffffffffffffffff1661107d82610874565b73ffffffffffffffffffffffffffffffffffffffff16146110d3576040517f08c379a00000000000000000000000000000000000000000000000000000000081526004016110ca90612ef2565b60405180910390fd5b6004600082815260200190815260200160002060006101000a81549073ffffffffffffffffffffffffffffffffffffffff02191690556001600360008573ffffffffffffffffffffffffffffffffffffffff1673ffffffffffffffffffffffffffffffffffffffff168152602001908152602001600020600082825403925050819055506001600360008473ffffffffffffffffffffffffffffffffffffffff1673ffffffffffffffffffffffffffffffffffffffff16815260200190815260200160002060008282540192505081905550816002600083815260200190815260200160002060006101000a81548173ffffffffffffffffffffffffffffffffffffffff021916908373ffffffffffffffffffffffffffffffffffffffff160217905550808273ffffffffffffffffffffffffffffffffffffffff168473ffffffffffffffffffffffffffffffffffffffff167fddf252ad1be2c89b69c2b068fc378daa952ba7f163c4a11628f55a4df523b3ef60405160405180910390a461125f8383836001611b41565b505050565b61126c610e14565b73ffffffffffffffffffffffffffffffffffffffff1661128a6109e7565b73ffffffffffffffffffffffffffffffffffffffff16146112e0576040517f08c379a00000000000000000000000000000000000000000000000000000000081526004016112d790612ff0565b60405180910390fd5b565b60006002600083815260200190815260200160002060009054906101000a900473ffffffffffffffffffffffffffffffffffffffff169050919050565b600073ffffffffffffffffffffffffffffffffffffffff168273ffffffffffffffffffffffffffffffffffffffff16141561138f576040517f08c379a00000000000000000000000000000000000000000000000000000000081526004016113869061305c565b60405180910390fd5b611398816119a0565b156113d8576040517f08c379a00000000000000000000000000000000000000000000000000000000081526004016113cf906130c8565b60405180910390fd5b6113e66000838360016119e1565b6113ef816119a0565b1561142f576040517f08c379a0000000000000000000000000000000000000000000000000000000008152600401611426906130c8565b60405180910390fd5b6001600360008473ffffffffffffffffffffffffffffffffffffffff1673ffffffffffffffffffffffffffffffffffffffff16815260200190815260200160002060008282540192505081905550816002600083815260200190815260200160002060006101000a81548173ffffffffffffffffffffffffffffffffffffffff021916908373ffffffffffffffffffffffffffffffffffffffff160217905550808273ffffffffffffffffffffffffffffffffffffffff16600073ffffffffffffffffffffffffffffffffffffffff167fddf252ad1be2c89b69c2b068fc378daa952ba7f163c4a11628f55a4df523b3ef60405160405180910390a4611539600083836001611b41565b5050565b6000600a60009054906101000a900473ffffffffffffffffffffffffffffffffffffffff16905081600a60006101000a81548173ffffffffffffffffffffffffffffffffffffffff021916908373ffffffffffffffffffffffffffffffffffffffff1602179055508173ffffffffffffffffffffffffffffffffffffffff168173ffffffffffffffffffffffffffffffffffffffff167f8be0079c531659141344cd1fd0a4f28419497f9722a3daafe3b4186f6b6457e060405160405180910390a35050565b8173ffffffffffffffffffffffffffffffffffffffff168373ffffffffffffffffffffffffffffffffffffffff161415611672576040517f08c379a000000000000000000000000000000000000000000000000000000000815260040161166990613134565b60405180910390fd5b80600560008573ffffffffffffffffffffffffffffffffffffffff1673ffffffffffffffffffffffffffffffffffffffff16815260200190815260200160002060008473ffffffffffffffffffffffffffffffffffffffff1673ffffffffffffffffffffffffffffffffffffffff16815260200190815260200160002060006101000a81548160ff0219169083151502179055508173ffffffffffffffffffffffffffffffffffffffff168373ffffffffffffffffffffffffffffffffffffffff167f17307eab39ab6107e8899845ad3d59bd9653f200f220920489ca2b5937696c318360405161176391906122a8565b60405180910390a3505050565b61177b848484610f6a565b61178784848484611b47565b6117c6576040517f08c379a00000000000000000000000000000000000000000000000000000000081526004016117bd906131c6565b60405180910390fd5b50505050565b6060600c80546117db906128d0565b80601f0160208091040260200160405190810160405280929190818152602001828054611807906128d0565b80156118545780601f1061182957610100808354040283529160200191611854565b820191906000526020600020905b81548152906001019060200180831161183757829003601f168201915b5050505050905090565b60606000600161186d84611ccf565b01905060008167ffffffffffffffff81111561188c5761188b612530565b5b6040519080825280601f01601f1916602001820160405280156118be5781602001600182028036833780820191505090505b509050600082602001820190505b60011561192b578080600190039150507f3031323334353637383961626364656600000000000000000000000000000000600a86061a8153600a8581611915576119146131e6565b5b04945060008514156119265761192b565b6118cc565b819350505050919050565b60007f01ffc9a7000000000000000000000000000000000000000000000000000000007bffffffffffffffffffffffffffffffffffffffffffffffffffffffff1916827bffffffffffffffffffffffffffffffffffffffffffffffffffffffff1916149050919050565b60008073ffffffffffffffffffffffffffffffffffffffff166119c2836112e2565b73ffffffffffffffffffffffffffffffffffffffff1614159050919050565b6119ed84848484611e22565b6001811115611a31576040517f08c379a0000000000000000000000000000000000000000000000000000000008152600401611a2890613287565b60405180910390fd5b6000829050600073ffffffffffffffffffffffffffffffffffffffff168573ffffffffffffffffffffffffffffffffffffffff161415611a7957611a7481611e28565b611ab8565b8373ffffffffffffffffffffffffffffffffffffffff168573ffffffffffffffffffffffffffffffffffffffff1614611ab757611ab68582611e71565b5b5b600073ffffffffffffffffffffffffffffffffffffffff168473ffffffffffffffffffffffffffffffffffffffff161415611afb57611af681611fde565b611b3a565b8473ffffffffffffffffffffffffffffffffffffffff168473ffffffffffffffffffffffffffffffffffffffff1614611b3957611b3884826120af565b5b5b5050505050565b50505050565b6000611b688473ffffffffffffffffffffffffffffffffffffffff1661212e565b15611cc2578373ffffffffffffffffffffffffffffffffffffffff1663150b7a02611b91610e14565b8786866040518563ffffffff1660e01b8152600401611bb394939291906132fc565b6020604051808303816000875af1925050508015611bef57506040513d601f19601f82011682018060405250810190611bec919061335d565b60015b611c72573d8060008114611c1f576040519150601f19603f3d011682016040523d82523d6000602084013e611c24565b606091505b50600081511415611c6a576040517f08c379a0000000000000000000000000000000000000000000000000000000008152600401611c61906131c6565b60405180910390fd5b805181602001fd5b63150b7a0260e01b7bffffffffffffffffffffffffffffffffffffffffffffffffffffffff1916817bffffffffffffffffffffffffffffffffffffffffffffffffffffffff191614915050611cc7565b600190505b949350505050565b600080600090507a184f03e93ff9f4daa797ed6e38ed64bf6a1f0100000000000000008310611d2d577a184f03e93ff9f4daa797ed6e38ed64bf6a1f0100000000000000008381611d2357611d226131e6565b5b0492506040810190505b6d04ee2d6d415b85acef81000000008310611d6a576d04ee2d6d415b85acef81000000008381611d6057611d5f6131e6565b5b0492506020810190505b662386f26fc100008310611d9957662386f26fc100008381611d8f57611d8e6131e6565b5b0492506010810190505b6305f5e1008310611dc2576305f5e1008381611db857611db76131e6565b5b0492506008810190505b6127108310611de7576127108381611ddd57611ddc6131e6565b5b0492506004810190505b60648310611e0a5760648381611e0057611dff6131e6565b5b0492506002810190505b600a8310611e19576001810190505b80915050919050565b50505050565b6008805490506009600083815260200190815260200160002081905550600881908060018154018082558091505060019003906000526020600020016000909190919091505550565b60006001611e7e8461091b565b611e88919061338a565b9050600060076000848152602001908152602001600020549050818114611f6d576000600660008673ffffffffffffffffffffffffffffffffffffffff1673ffffffffffffffffffffffffffffffffffffffff168152602001908152602001600020600084815260200190815260200160002054905080600660008773ffffffffffffffffffffffffffffffffffffffff1673ffffffffffffffffffffffffffffffffffffffff168152602001908152602001600020600084815260200190815260200160002081905550816007600083815260200190815260200160002081905550505b6007600084815260200190815260200160002060009055600660008573ffffffffffffffffffffffffffffffffffffffff1673ffffffffffffffffffffffffffffffffffffffff16815260200190815260200160002060008381526020019081526020016000206000905550505050565b60006001600880549050611ff2919061338a565b905060006009600084815260200190815260200160002054905060006008838154811061202257612021612bdc565b5b90600052602060002001549050806008838154811061204457612043612bdc565b5b906000526020600020018190555081600960008381526020019081526020016000208190555060096000858152602001908152602001600020600090556008805480612093576120926133be565b5b6001900381819060005260206000200160009055905550505050565b60006120ba8361091b565b905081600660008573ffffffffffffffffffffffffffffffffffffffff1673ffffffffffffffffffffffffffffffffffffffff168152602001908152602001600020600083815260200190815260200160002081905550806007600084815260200190815260200160002081905550505050565b6000808273ffffffffffffffffffffffffffffffffffffffff163b119050919050565b82805461215d906128d0565b90600052602060002090601f01602090048101928261217f57600085556121c6565b82601f1061219857805160ff19168380011785556121c6565b828001600101855582156121c6579182015b828111156121c55782518255916020019190600101906121aa565b5b5090506121d391906121d7565b5090565b5b808211156121f05760008160009055506001016121d8565b5090565b6000604051905090565b600080fd5b600080fd5b60007fffffffff0000000000000000000000000000000000000000000000000000000082169050919050565b61223d81612208565b811461224857600080fd5b50565b60008135905061225a81612234565b92915050565b600060208284031215612276576122756121fe565b5b60006122848482850161224b565b91505092915050565b60008115159050919050565b6122a28161228d565b82525050565b60006020820190506122bd6000830184612299565b92915050565b600081519050919050565b600082825260208201905092915050565b60005b838110156122fd5780820151818401526020810190506122e2565b8381111561230c576000848401525b50505050565b6000601f19601f8301169050919050565b600061232e826122c3565b61233881856122ce565b93506123488185602086016122df565b61235181612312565b840191505092915050565b600060208201905081810360008301526123768184612323565b905092915050565b6000819050919050565b6123918161237e565b811461239c57600080fd5b50565b6000813590506123ae81612388565b92915050565b6000602082840312156123ca576123c96121fe565b5b60006123d88482850161239f565b91505092915050565b600073ffffffffffffffffffffffffffffffffffffffff82169050919050565b600061240c826123e1565b9050919050565b61241c81612401565b82525050565b60006020820190506124376000830184612413565b92915050565b61244681612401565b811461245157600080fd5b50565b6000813590506124638161243d565b92915050565b600080604083850312156124805761247f6121fe565b5b600061248e85828601612454565b925050602061249f8582860161239f565b9150509250929050565b6124b28161237e565b82525050565b60006020820190506124cd60008301846124a9565b92915050565b6000806000606084860312156124ec576124eb6121fe565b5b60006124fa86828701612454565b935050602061250b86828701612454565b925050604061251c8682870161239f565b9150509250925092565b600080fd5b600080fd5b7f4e487b7100000000000000000000000000000000000000000000000000000000600052604160045260246000fd5b61256882612312565b810181811067ffffffffffffffff8211171561258757612586612530565b5b80604052505050565b600061259a6121f4565b90506125a6828261255f565b919050565b600067ffffffffffffffff8211156125c6576125c5612530565b5b6125cf82612312565b9050602081019050919050565b82818337600083830152505050565b60006125fe6125f9846125ab565b612590565b90508281526020810184848401111561261a5761261961252b565b5b6126258482856125dc565b509392505050565b600082601f83011261264257612641612526565b5b81356126528482602086016125eb565b91505092915050565b600060208284031215612671576126706121fe565b5b600082013567ffffffffffffffff81111561268f5761268e612203565b5b61269b8482850161262d565b91505092915050565b6000602082840312156126ba576126b96121fe565b5b60006126c884828501612454565b91505092915050565b6126da8161228d565b81146126e557600080fd5b50565b6000813590506126f7816126d1565b92915050565b60008060408385031215612714576127136121fe565b5b600061272285828601612454565b9250506020612733858286016126e8565b9150509250929050565b600067ffffffffffffffff82111561275857612757612530565b5b61276182612312565b9050602081019050919050565b600061278161277c8461273d565b612590565b90508281526020810184848401111561279d5761279c61252b565b5b6127a88482856125dc565b509392505050565b600082601f8301126127c5576127c4612526565b5b81356127d584826020860161276e565b91505092915050565b600080600080608085870312156127f8576127f76121fe565b5b600061280687828801612454565b945050602061281787828801612454565b93505060406128288782880161239f565b925050606085013567ffffffffffffffff81111561284957612848612203565b5b612855878288016127b0565b91505092959194509250565b60008060408385031215612878576128776121fe565b5b600061288685828601612454565b925050602061289785828601612454565b9150509250929050565b7f4e487b7100000000000000000000000000000000000000000000000000000000600052602260045260246000fd5b600060028204905060018216806128e857607f821691505b602082108114156128fc576128fb6128a1565b5b50919050565b7f4552433732313a20617070726f76616c20746f2063757272656e74206f776e6560008201527f7200000000000000000000000000000000000000000000000000000000000000602082015250565b600061295e6021836122ce565b915061296982612902565b604082019050919050565b6000602082019050818103600083015261298d81612951565b9050919050565b7f4552433732313a20617070726f76652063616c6c6572206973206e6f7420746f60008201527f6b656e206f776e6572206f7220617070726f76656420666f7220616c6c000000602082015250565b60006129f0603d836122ce565b91506129fb82612994565b604082019050919050565b60006020820190508181036000830152612a1f816129e3565b9050919050565b7f4552433732313a2063616c6c6572206973206e6f7420746f6b656e206f776e6560008201527f72206f7220617070726f76656400000000000000000000000000000000000000602082015250565b6000612a82602d836122ce565b9150612a8d82612a26565b604082019050919050565b60006020820190508181036000830152612ab181612a75565b9050919050565b7f455243373231456e756d657261626c653a206f776e657220696e646578206f7560008201527f74206f6620626f756e6473000000000000000000000000000000000000000000602082015250565b6000612b14602b836122ce565b9150612b1f82612ab8565b604082019050919050565b60006020820190508181036000830152612b4381612b07565b9050919050565b7f455243373231456e756d657261626c653a20676c6f62616c20696e646578206f60008201527f7574206f6620626f756e64730000000000000000000000000000000000000000602082015250565b6000612ba6602c836122ce565b9150612bb182612b4a565b604082019050919050565b60006020820190508181036000830152612bd581612b99565b9050919050565b7f4e487b7100000000000000000000000000000000000000000000000000000000600052603260045260246000fd5b7f4552433732313a20696e76616c696420746f6b656e2049440000000000000000600082015250565b6000612c416018836122ce565b9150612c4c82612c0b565b602082019050919050565b60006020820190508181036000830152612c7081612c34565b9050919050565b7f4e487b7100000000000000000000000000000000000000000000000000000000600052601160045260246000fd5b6000612cb18261237e565b9150612cbc8361237e565b9250827fffffffffffffffffffffffffffffffffffffffffffffffffffffffffffffffff03821115612cf157612cf0612c77565b5b828201905092915050565b7f4552433732313a2061646472657373207a65726f206973206e6f74206120766160008201527f6c6964206f776e65720000000000000000000000000000000000000000000000602082015250565b6000612d586029836122ce565b9150612d6382612cfc565b604082019050919050565b60006020820190508181036000830152612d8781612d4b565b9050919050565b600081905092915050565b6000612da4826122c3565b612dae8185612d8e565b9350612dbe8185602086016122df565b80840191505092915050565b6000612dd68285612d99565b9150612de28284612d99565b91508190509392505050565b7f4f776e61626c653a206e6577206f776e657220697320746865207a65726f206160008201527f6464726573730000000000000000000000000000000000000000000000000000602082015250565b6000612e4a6026836122ce565b9150612e5582612dee565b604082019050919050565b60006020820190508181036000830152612e7981612e3d565b9050919050565b7f4552433732313a207472616e736665722066726f6d20696e636f72726563742060008201527f6f776e6572000000000000000000000000000000000000000000000000000000602082015250565b6000612edc6025836122ce565b9150612ee782612e80565b604082019050919050565b60006020820190508181036000830152612f0b81612ecf565b9050919050565b7f4552433732313a207472616e7366657220746f20746865207a65726f2061646460008201527f7265737300000000000000000000000000000000000000000000000000000000602082015250565b6000612f6e6024836122ce565b9150612f7982612f12565b604082019050919050565b60006020820190508181036000830152612f9d81612f61565b9050919050565b7f4f776e61626c653a2063616c6c6572206973206e6f7420746865206f776e6572600082015250565b6000612fda6020836122ce565b9150612fe582612fa4565b602082019050919050565b6000602082019050818103600083015261300981612fcd565b9050919050565b7f4552433732313a206d696e7420746f20746865207a65726f2061646472657373600082015250565b60006130466020836122ce565b915061305182613010565b602082019050919050565b6000602082019050818103600083015261307581613039565b9050919050565b7f4552433732313a20746f6b656e20616c7265616479206d696e74656400000000600082015250565b60006130b2601c836122ce565b91506130bd8261307c565b602082019050919050565b600060208201905081810360008301526130e1816130a5565b9050919050565b7f4552433732313a20617070726f766520746f2063616c6c657200000000000000600082015250565b600061311e6019836122ce565b9150613129826130e8565b602082019050919050565b6000602082019050818103600083015261314d81613111565b9050919050565b7f4552433732313a207472616e7366657220746f206e6f6e20455243373231526560008201527f63656976657220696d706c656d656e7465720000000000000000000000000000602082015250565b60006131b06032836122ce565b91506131bb82613154565b604082019050919050565b600060208201905081810360008301526131df816131a3565b9050919050565b7f4e487b7100000000000000000000000000000000000000000000000000000000600052601260045260246000fd5b7f455243373231456e756d657261626c653a20636f6e736563757469766520747260008201527f616e7366657273206e6f7420737570706f727465640000000000000000000000602082015250565b60006132716035836122ce565b915061327c82613215565b604082019050919050565b600060208201905081810360008301526132a081613264565b9050919050565b600081519050919050565b600082825260208201905092915050565b60006132ce826132a7565b6132d881856132b2565b93506132e88185602086016122df565b6132f181612312565b840191505092915050565b60006080820190506133116000830187612413565b61331e6020830186612413565b61332b60408301856124a9565b818103606083015261333d81846132c3565b905095945050505050565b60008151905061335781612234565b92915050565b600060208284031215613373576133726121fe565b5b600061338184828501613348565b91505092915050565b60006133958261237e565b91506133a08361237e565b9250828210156133b3576133b2612c77565b5b828203905092915050565b7f4e487b7100000000000000000000000000000000000000000000000000000000600052603160045260246000fdfea2646970667358221220b38e0777ea466da480dc9c7fb18741f0faeb50ed3b4869dd376839a09794b5f664736f6c634300080c0033",
  "immutableReferences": {},
  "source": "// SPDX-License-Identifier: MIT\npragma solidity >=0.4.22 <0.9.0;\n\nimport \"@openzeppelin/contracts/token/ERC721/extensions/ERC721Enumerable.sol\";\nimport \"@openzeppelin/contracts/access/Ownable.sol\";\n\ncontract KudosMinter is ERC721Enumerable, Ownable {\n    address private _minter;\n    string private _baseURIStorage;\n\n    constructor() ERC721(\"Kudos\", \"KUDO\") {\n      _baseURIStorage = \"https://test.com\";\n      _minter = 0x1C9e4a7636ea865c8D3476722bC93CADFD37eAd1;\n    }\n\n    function mint(address reciever) public{\n        _mint(reciever,  totalSupply() + 1);\n    }\n\n    function _baseURI() internal view override returns (string memory) {\n        return _baseURIStorage;\n    }\n    // ** Only Owner Functions **\n\n    function setMinter(address newMinter)\n        external\n        onlyOwner\n    {\n        _minter = newMinter;\n    }\n\n     function setBaseURI(string memory baseURIStorage) external onlyOwner {\n        _baseURIStorage = baseURIStorage;\n    }\n\n\n}\n",
  "sourcePath": "/home/pavel/git/kudosMinter/blockchain/contracts/KudosMinter.sol",
  "compiler": {
    "name": "solc",
    "version": "0.8.12+commit.f00d7308.Emscripten.clang"
  },
  "schemaVersion": "3.4.5",
  "updatedAt": "2023-06-09T09:50:16.383Z",
  "devdoc": {
    "kind": "dev",
    "methods": {
      "approve(address,uint256)": {
        "details": "See {IERC721-approve}."
      },
      "balanceOf(address)": {
        "details": "See {IERC721-balanceOf}."
      },
      "getApproved(uint256)": {
        "details": "See {IERC721-getApproved}."
      },
      "isApprovedForAll(address,address)": {
        "details": "See {IERC721-isApprovedForAll}."
      },
      "name()": {
        "details": "See {IERC721Metadata-name}."
      },
      "owner()": {
        "details": "Returns the address of the current owner."
      },
      "ownerOf(uint256)": {
        "details": "See {IERC721-ownerOf}."
      },
      "renounceOwnership()": {
        "details": "Leaves the contract without owner. It will not be possible to call `onlyOwner` functions. Can only be called by the current owner. NOTE: Renouncing ownership will leave the contract without an owner, thereby disabling any functionality that is only available to the owner."
      },
      "safeTransferFrom(address,address,uint256)": {
        "details": "See {IERC721-safeTransferFrom}."
      },
      "safeTransferFrom(address,address,uint256,bytes)": {
        "details": "See {IERC721-safeTransferFrom}."
      },
      "setApprovalForAll(address,bool)": {
        "details": "See {IERC721-setApprovalForAll}."
      },
      "supportsInterface(bytes4)": {
        "details": "See {IERC165-supportsInterface}."
      },
      "symbol()": {
        "details": "See {IERC721Metadata-symbol}."
      },
      "tokenByIndex(uint256)": {
        "details": "See {IERC721Enumerable-tokenByIndex}."
      },
      "tokenOfOwnerByIndex(address,uint256)": {
        "details": "See {IERC721Enumerable-tokenOfOwnerByIndex}."
      },
      "tokenURI(uint256)": {
        "details": "See {IERC721Metadata-tokenURI}."
      },
      "totalSupply()": {
        "details": "See {IERC721Enumerable-totalSupply}."
      },
      "transferFrom(address,address,uint256)": {
        "details": "See {IERC721-transferFrom}."
      },
      "transferOwnership(address)": {
        "details": "Transfers ownership of the contract to a new account (`newOwner`). Can only be called by the current owner."
      }
    },
    "version": 1
  },
  "userdoc": {
    "kind": "user",
    "methods": {},
    "version": 1
  }
}