{
  "contractName": "KudosMinter",
  "abi": [
    {
      "inputs": [],
      "stateMutability": "nonpayable",
      "type": "constructor"
    },
    {
      "anonymous": false,
      "inputs": [
        {
          "indexed": true,
          "internalType": "address",
          "name": "owner",
          "type": "address"
        },
        {
          "indexed": true,
          "internalType": "address",
          "name": "approved",
          "type": "address"
        },
        {
          "indexed": true,
          "internalType": "uint256",
          "name": "tokenId",
          "type": "uint256"
        }
      ],
      "name": "Approval",
      "type": "event"
    },
    {
      "anonymous": false,
      "inputs": [
        {
          "indexed": true,
          "internalType": "address",
          "name": "owner",
          "type": "address"
        },
        {
          "indexed": true,
          "internalType": "address",
          "name": "operator",
          "type": "address"
        },
        {
          "indexed": false,
          "internalType": "bool",
          "name": "approved",
          "type": "bool"
        }
      ],
      "name": "ApprovalForAll",
      "type": "event"
    },
    {
      "anonymous": false,
      "inputs": [
        {
          "indexed": true,
          "internalType": "address",
          "name": "previousOwner",
          "type": "address"
        },
        {
          "indexed": true,
          "internalType": "address",
          "name": "newOwner",
          "type": "address"
        }
      ],
      "name": "OwnershipTransferred",
      "type": "event"
    },
    {
      "anonymous": false,
      "inputs": [
        {
          "indexed": true,
          "internalType": "address",
          "name": "from",
          "type": "address"
        },
        {
          "indexed": true,
          "internalType": "address",
          "name": "to",
          "type": "address"
        },
        {
          "indexed": true,
          "internalType": "uint256",
          "name": "tokenId",
          "type": "uint256"
        }
      ],
      "name": "Transfer",
      "type": "event"
    },
    {
      "inputs": [
        {
          "internalType": "address",
          "name": "to",
          "type": "address"
        },
        {
          "internalType": "uint256",
          "name": "tokenId",
          "type": "uint256"
        }
      ],
      "name": "approve",
      "outputs": [],
      "stateMutability": "nonpayable",
      "type": "function"
    },
    {
      "inputs": [
        {
          "internalType": "address",
          "name": "owner",
          "type": "address"
        }
      ],
      "name": "balanceOf",
      "outputs": [
        {
          "internalType": "uint256",
          "name": "",
          "type": "uint256"
        }
      ],
      "stateMutability": "view",
      "type": "function",
      "constant": true
    },
    {
      "inputs": [
        {
          "internalType": "uint256",
          "name": "tokenId",
          "type": "uint256"
        }
      ],
      "name": "getApproved",
      "outputs": [
        {
          "internalType": "address",
          "name": "",
          "type": "address"
        }
      ],
      "stateMutability": "view",
      "type": "function",
      "constant": true
    },
    {
      "inputs": [
        {
          "internalType": "address",
          "name": "owner",
          "type": "address"
        },
        {
          "internalType": "address",
          "name": "operator",
          "type": "address"
        }
      ],
      "name": "isApprovedForAll",
      "outputs": [
        {
          "internalType": "bool",
          "name": "",
          "type": "bool"
        }
      ],
      "stateMutability": "view",
      "type": "function",
      "constant": true
    },
    {
      "inputs": [],
      "name": "name",
      "outputs": [
        {
          "internalType": "string",
          "name": "",
          "type": "string"
        }
      ],
      "stateMutability": "view",
      "type": "function",
      "constant": true
    },
    {
      "inputs": [],
      "name": "owner",
      "outputs": [
        {
          "internalType": "address",
          "name": "",
          "type": "address"
        }
      ],
      "stateMutability": "view",
      "type": "function",
      "constant": true
    },
    {
      "inputs": [
        {
          "internalType": "uint256",
          "name": "tokenId",
          "type": "uint256"
        }
      ],
      "name": "ownerOf",
      "outputs": [
        {
          "internalType": "address",
          "name": "",
          "type": "address"
        }
      ],
      "stateMutability": "view",
      "type": "function",
      "constant": true
    },
    {
      "inputs": [],
      "name": "renounceOwnership",
      "outputs": [],
      "stateMutability": "nonpayable",
      "type": "function"
    },
    {
      "inputs": [
        {
          "internalType": "address",
          "name": "from",
          "type": "address"
        },
        {
          "internalType": "address",
          "name": "to",
          "type": "address"
        },
        {
          "internalType": "uint256",
          "name": "tokenId",
          "type": "uint256"
        }
      ],
      "name": "safeTransferFrom",
      "outputs": [],
      "stateMutability": "nonpayable",
      "type": "function"
    },
    {
      "inputs": [
        {
          "internalType": "address",
          "name": "from",
          "type": "address"
        },
        {
          "internalType": "address",
          "name": "to",
          "type": "address"
        },
        {
          "internalType": "uint256",
          "name": "tokenId",
          "type": "uint256"
        },
        {
          "internalType": "bytes",
          "name": "data",
          "type": "bytes"
        }
      ],
      "name": "safeTransferFrom",
      "outputs": [],
      "stateMutability": "nonpayable",
      "type": "function"
    },
    {
      "inputs": [
        {
          "internalType": "address",
          "name": "operator",
          "type": "address"
        },
        {
          "internalType": "bool",
          "name": "approved",
          "type": "bool"
        }
      ],
      "name": "setApprovalForAll",
      "outputs": [],
      "stateMutability": "nonpayable",
      "type": "function"
    },
    {
      "inputs": [
        {
          "internalType": "bytes4",
          "name": "interfaceId",
          "type": "bytes4"
        }
      ],
      "name": "supportsInterface",
      "outputs": [
        {
          "internalType": "bool",
          "name": "",
          "type": "bool"
        }
      ],
      "stateMutability": "view",
      "type": "function",
      "constant": true
    },
    {
      "inputs": [],
      "name": "symbol",
      "outputs": [
        {
          "internalType": "string",
          "name": "",
          "type": "string"
        }
      ],
      "stateMutability": "view",
      "type": "function",
      "constant": true
    },
    {
      "inputs": [
        {
          "internalType": "uint256",
          "name": "index",
          "type": "uint256"
        }
      ],
      "name": "tokenByIndex",
      "outputs": [
        {
          "internalType": "uint256",
          "name": "",
          "type": "uint256"
        }
      ],
      "stateMutability": "view",
      "type": "function",
      "constant": true
    },
    {
      "inputs": [
        {
          "internalType": "address",
          "name": "owner",
          "type": "address"
        },
        {
          "internalType": "uint256",
          "name": "index",
          "type": "uint256"
        }
      ],
      "name": "tokenOfOwnerByIndex",
      "outputs": [
        {
          "internalType": "uint256",
          "name": "",
          "type": "uint256"
        }
      ],
      "stateMutability": "view",
      "type": "function",
      "constant": true
    },
    {
      "inputs": [
        {
          "internalType": "uint256",
          "name": "tokenId",
          "type": "uint256"
        }
      ],
      "name": "tokenURI",
      "outputs": [
        {
          "internalType": "string",
          "name": "",
          "type": "string"
        }
      ],
      "stateMutability": "view",
      "type": "function",
      "constant": true
    },
    {
      "inputs": [],
      "name": "totalSupply",
      "outputs": [
        {
          "internalType": "uint256",
          "name": "",
          "type": "uint256"
        }
      ],
      "stateMutability": "view",
      "type": "function",
      "constant": true
    },
    {
      "inputs": [
        {
          "internalType": "address",
          "name": "from",
          "type": "address"
        },
        {
          "internalType": "address",
          "name": "to",
          "type": "address"
        },
        {
          "internalType": "uint256",
          "name": "tokenId",
          "type": "uint256"
        }
      ],
      "name": "transferFrom",
      "outputs": [],
      "stateMutability": "nonpayable",
      "type": "function"
    },
    {
      "inputs": [
        {
          "internalType": "address",
          "name": "newOwner",
          "type": "address"
        }
      ],
      "name": "transferOwnership",
      "outputs": [],
      "stateMutability": "nonpayable",
      "type": "function"
    },
    {
      "inputs": [
        {
          "internalType": "address",
          "name": "reciever",
          "type": "address"
        }
      ],
      "name": "mint",
      "outputs": [
        {
          "internalType": "uint256",
          "name": "",
          "type": "uint256"
        }
      ],
      "stateMutability": "nonpayable",
      "type": "function"
    },
    {
      "inputs": [
        {
          "internalType": "address",
          "name": "newMinter",
          "type": "address"
        }
      ],
      "name": "setMinter",
      "outputs": [],
      "stateMutability": "nonpayable",
      "type": "function"
    },
    {
      "inputs": [
        {
          "internalType": "string",
          "name": "baseURIStorage",
          "type": "string"
        }
      ],
      "name": "setBaseURI",
      "outputs": [],
      "stateMutability": "nonpayable",
      "type": "function"
    }
  ],
  "bytecode": "0x60806040523480156200001157600080fd5b506040518060400160405280600581526020017f4b75646f730000000000000000000000000000000000000000000000000000008152506040518060400160405280600481526020017f4b55444f0000000000000000000000000000000000000000000000000000000081525081600090805190602001906200009692919062000249565b508060019080519060200190620000af92919062000249565b505050620000d2620000c66200017b60201b60201c565b6200018360201b60201c565b6040518060400160405280601081526020017f68747470733a2f2f746573742e636f6d00000000000000000000000000000000815250600c90805190602001906200011f92919062000249565b50731c9e4a7636ea865c8d3476722bc93cadfd37ead1600b60006101000a81548173ffffffffffffffffffffffffffffffffffffffff021916908373ffffffffffffffffffffffffffffffffffffffff1602179055506200035e565b600033905090565b6000600a60009054906101000a900473ffffffffffffffffffffffffffffffffffffffff16905081600a60006101000a81548173ffffffffffffffffffffffffffffffffffffffff021916908373ffffffffffffffffffffffffffffffffffffffff1602179055508173ffffffffffffffffffffffffffffffffffffffff168173ffffffffffffffffffffffffffffffffffffffff167f8be0079c531659141344cd1fd0a4f28419497f9722a3daafe3b4186f6b6457e060405160405180910390a35050565b828054620002579062000328565b90600052602060002090601f0160209004810192826200027b5760008555620002c7565b82601f106200029657805160ff1916838001178555620002c7565b82800160010185558215620002c7579182015b82811115620002c6578251825591602001919060010190620002a9565b5b509050620002d69190620002da565b5090565b5b80821115620002f5576000816000905550600101620002db565b5090565b7f4e487b7100000000000000000000000000000000000000000000000000000000600052602260045260246000fd5b600060028204905060018216806200034157607f821691505b60208210811415620003585762000357620002f9565b5b50919050565b613445806200036e6000396000f3fe608060405234801561001057600080fd5b50600436106101425760003560e01c80636a627842116100b8578063a22cb4651161007c578063a22cb46514610389578063b88d4fde146103a5578063c87b56dd146103c1578063e985e9c5146103f1578063f2fde38b14610421578063fca3b5aa1461043d57610142565b80636a627842146102e357806370a0823114610313578063715018a6146103435780638da5cb5b1461034d57806395d89b411461036b57610142565b806323b872dd1161010a57806323b872dd146101ff5780632f745c591461021b57806342842e0e1461024b5780634f6ccce71461026757806355f804b3146102975780636352211e146102b357610142565b806301ffc9a71461014757806306fdde0314610177578063081812fc14610195578063095ea7b3146101c557806318160ddd146101e1575b600080fd5b610161600480360381019061015c9190612282565b610459565b60405161016e91906122ca565b60405180910390f35b61017f6104d3565b60405161018c919061237e565b60405180910390f35b6101af60048036038101906101aa91906123d6565b610565565b6040516101bc9190612444565b60405180910390f35b6101df60048036038101906101da919061248b565b6105ab565b005b6101e96106c3565b6040516101f691906124da565b60405180910390f35b610219600480360381019061021491906124f5565b6106d0565b005b6102356004803603810190610230919061248b565b610730565b60405161024291906124da565b60405180910390f35b610265600480360381019061026091906124f5565b6107d5565b005b610281600480360381019061027c91906123d6565b6107f5565b60405161028e91906124da565b60405180910390f35b6102b160048036038101906102ac919061267d565b610866565b005b6102cd60048036038101906102c891906123d6565b610888565b6040516102da9190612444565b60405180910390f35b6102fd60048036038101906102f891906126c6565b61090f565b60405161030a91906124da565b60405180910390f35b61032d600480360381019061032891906126c6565b61093d565b60405161033a91906124da565b60405180910390f35b61034b6109f5565b005b610355610a09565b6040516103629190612444565b60405180910390f35b610373610a33565b604051610380919061237e565b60405180910390f35b6103a3600480360381019061039e919061271f565b610ac5565b005b6103bf60048036038101906103ba9190612800565b610adb565b005b6103db60048036038101906103d691906123d6565b610b3d565b6040516103e8919061237e565b60405180910390f35b61040b60048036038101906104069190612883565b610ba5565b60405161041891906122ca565b60405180910390f35b61043b600480360381019061043691906126c6565b610c39565b005b610457600480360381019061045291906126c6565b610cbd565b005b60007f780e9d63000000000000000000000000000000000000000000000000000000007bffffffffffffffffffffffffffffffffffffffffffffffffffffffff1916827bffffffffffffffffffffffffffffffffffffffffffffffffffffffff191614806104cc57506104cb82610d09565b5b9050919050565b6060600080546104e2906128f2565b80601f016020809104026020016040519081016040528092919081815260200182805461050e906128f2565b801561055b5780601f106105305761010080835404028352916020019161055b565b820191906000526020600020905b81548152906001019060200180831161053e57829003601f168201915b5050505050905090565b600061057082610deb565b6004600083815260200190815260200160002060009054906101000a900473ffffffffffffffffffffffffffffffffffffffff169050919050565b60006105b682610888565b90508073ffffffffffffffffffffffffffffffffffffffff168373ffffffffffffffffffffffffffffffffffffffff161415610627576040517f08c379a000000000000000000000000000000000000000000000000000000000815260040161061e90612996565b60405180910390fd5b8073ffffffffffffffffffffffffffffffffffffffff16610646610e36565b73ffffffffffffffffffffffffffffffffffffffff16148061067557506106748161066f610e36565b610ba5565b5b6106b4576040517f08c379a00000000000000000000000000000000000000000000000000000000081526004016106ab90612a28565b60405180910390fd5b6106be8383610e3e565b505050565b6000600880549050905090565b6106e16106db610e36565b82610ef7565b610720576040517f08c379a000000000000000000000000000000000000000000000000000000000815260040161071790612aba565b60405180910390fd5b61072b838383610f8c565b505050565b600061073b8361093d565b821061077c576040517f08c379a000000000000000000000000000000000000000000000000000000000815260040161077390612b4c565b60405180910390fd5b600660008473ffffffffffffffffffffffffffffffffffffffff1673ffffffffffffffffffffffffffffffffffffffff168152602001908152602001600020600083815260200190815260200160002054905092915050565b6107f083838360405180602001604052806000815250610adb565b505050565b60006107ff6106c3565b8210610840576040517f08c379a000000000000000000000000000000000000000000000000000000000815260040161083790612bde565b60405180910390fd5b6008828154811061085457610853612bfe565b5b90600052602060002001549050919050565b61086e611286565b80600c9080519060200190610884929190612173565b5050565b60008061089483611304565b9050600073ffffffffffffffffffffffffffffffffffffffff168173ffffffffffffffffffffffffffffffffffffffff161415610906576040517f08c379a00000000000000000000000000000000000000000000000000000000081526004016108fd90612c79565b60405180910390fd5b80915050919050565b600061092e82600161091f6106c3565b6109299190612cc8565b611341565b6109366106c3565b9050919050565b60008073ffffffffffffffffffffffffffffffffffffffff168273ffffffffffffffffffffffffffffffffffffffff1614156109ae576040517f08c379a00000000000000000000000000000000000000000000000000000000081526004016109a590612d90565b60405180910390fd5b600360008373ffffffffffffffffffffffffffffffffffffffff1673ffffffffffffffffffffffffffffffffffffffff168152602001908152602001600020549050919050565b6109fd611286565b610a07600061155f565b565b6000600a60009054906101000a900473ffffffffffffffffffffffffffffffffffffffff16905090565b606060018054610a42906128f2565b80601f0160208091040260200160405190810160405280929190818152602001828054610a6e906128f2565b8015610abb5780601f10610a9057610100808354040283529160200191610abb565b820191906000526020600020905b815481529060010190602001808311610a9e57829003601f168201915b5050505050905090565b610ad7610ad0610e36565b8383611625565b5050565b610aec610ae6610e36565b83610ef7565b610b2b576040517f08c379a0000000000000000000000000000000000000000000000000000000008152600401610b2290612aba565b60405180910390fd5b610b3784848484611792565b50505050565b6060610b4882610deb565b6000610b526117ee565b90506000815111610b725760405180602001604052806000815250610b9d565b80610b7c84611880565b604051602001610b8d929190612dec565b6040516020818303038152906040525b915050919050565b6000600560008473ffffffffffffffffffffffffffffffffffffffff1673ffffffffffffffffffffffffffffffffffffffff16815260200190815260200160002060008373ffffffffffffffffffffffffffffffffffffffff1673ffffffffffffffffffffffffffffffffffffffff16815260200190815260200160002060009054906101000a900460ff16905092915050565b610c41611286565b600073ffffffffffffffffffffffffffffffffffffffff168173ffffffffffffffffffffffffffffffffffffffff161415610cb1576040517f08c379a0000000000000000000000000000000000000000000000000000000008152600401610ca890612e82565b60405180910390fd5b610cba8161155f565b50565b610cc5611286565b80600b60006101000a81548173ffffffffffffffffffffffffffffffffffffffff021916908373ffffffffffffffffffffffffffffffffffffffff16021790555050565b60007f80ac58cd000000000000000000000000000000000000000000000000000000007bffffffffffffffffffffffffffffffffffffffffffffffffffffffff1916827bffffffffffffffffffffffffffffffffffffffffffffffffffffffff19161480610dd457507f5b5e139f000000000000000000000000000000000000000000000000000000007bffffffffffffffffffffffffffffffffffffffffffffffffffffffff1916827bffffffffffffffffffffffffffffffffffffffffffffffffffffffff1916145b80610de45750610de382611958565b5b9050919050565b610df4816119c2565b610e33576040517f08c379a0000000000000000000000000000000000000000000000000000000008152600401610e2a90612c79565b60405180910390fd5b50565b600033905090565b816004600083815260200190815260200160002060006101000a81548173ffffffffffffffffffffffffffffffffffffffff021916908373ffffffffffffffffffffffffffffffffffffffff160217905550808273ffffffffffffffffffffffffffffffffffffffff16610eb183610888565b73ffffffffffffffffffffffffffffffffffffffff167f8c5be1e5ebec7d5bd14f71427d1e84f3dd0314c0f7b2291e5b200ac8c7c3b92560405160405180910390a45050565b600080610f0383610888565b90508073ffffffffffffffffffffffffffffffffffffffff168473ffffffffffffffffffffffffffffffffffffffff161480610f455750610f448185610ba5565b5b80610f8357508373ffffffffffffffffffffffffffffffffffffffff16610f6b84610565565b73ffffffffffffffffffffffffffffffffffffffff16145b91505092915050565b8273ffffffffffffffffffffffffffffffffffffffff16610fac82610888565b73ffffffffffffffffffffffffffffffffffffffff1614611002576040517f08c379a0000000000000000000000000000000000000000000000000000000008152600401610ff990612f14565b60405180910390fd5b600073ffffffffffffffffffffffffffffffffffffffff168273ffffffffffffffffffffffffffffffffffffffff161415611072576040517f08c379a000000000000000000000000000000000000000000000000000000000815260040161106990612fa6565b60405180910390fd5b61107f8383836001611a03565b8273ffffffffffffffffffffffffffffffffffffffff1661109f82610888565b73ffffffffffffffffffffffffffffffffffffffff16146110f5576040517f08c379a00000000000000000000000000000000000000000000000000000000081526004016110ec90612f14565b60405180910390fd5b6004600082815260200190815260200160002060006101000a81549073ffffffffffffffffffffffffffffffffffffffff02191690556001600360008573ffffffffffffffffffffffffffffffffffffffff1673ffffffffffffffffffffffffffffffffffffffff168152602001908152602001600020600082825403925050819055506001600360008473ffffffffffffffffffffffffffffffffffffffff1673ffffffffffffffffffffffffffffffffffffffff16815260200190815260200160002060008282540192505081905550816002600083815260200190815260200160002060006101000a81548173ffffffffffffffffffffffffffffffffffffffff021916908373ffffffffffffffffffffffffffffffffffffffff160217905550808273ffffffffffffffffffffffffffffffffffffffff168473ffffffffffffffffffffffffffffffffffffffff167fddf252ad1be2c89b69c2b068fc378daa952ba7f163c4a11628f55a4df523b3ef60405160405180910390a46112818383836001611b63565b505050565b61128e610e36565b73ffffffffffffffffffffffffffffffffffffffff166112ac610a09565b73ffffffffffffffffffffffffffffffffffffffff1614611302576040517f08c379a00000000000000000000000000000000000000000000000000000000081526004016112f990613012565b60405180910390fd5b565b60006002600083815260200190815260200160002060009054906101000a900473ffffffffffffffffffffffffffffffffffffffff169050919050565b600073ffffffffffffffffffffffffffffffffffffffff168273ffffffffffffffffffffffffffffffffffffffff1614156113b1576040517f08c379a00000000000000000000000000000000000000000000000000000000081526004016113a89061307e565b60405180910390fd5b6113ba816119c2565b156113fa576040517f08c379a00000000000000000000000000000000000000000000000000000000081526004016113f1906130ea565b60405180910390fd5b611408600083836001611a03565b611411816119c2565b15611451576040517f08c379a0000000000000000000000000000000000000000000000000000000008152600401611448906130ea565b60405180910390fd5b6001600360008473ffffffffffffffffffffffffffffffffffffffff1673ffffffffffffffffffffffffffffffffffffffff16815260200190815260200160002060008282540192505081905550816002600083815260200190815260200160002060006101000a81548173ffffffffffffffffffffffffffffffffffffffff021916908373ffffffffffffffffffffffffffffffffffffffff160217905550808273ffffffffffffffffffffffffffffffffffffffff16600073ffffffffffffffffffffffffffffffffffffffff167fddf252ad1be2c89b69c2b068fc378daa952ba7f163c4a11628f55a4df523b3ef60405160405180910390a461155b600083836001611b63565b5050565b6000600a60009054906101000a900473ffffffffffffffffffffffffffffffffffffffff16905081600a60006101000a81548173ffffffffffffffffffffffffffffffffffffffff021916908373ffffffffffffffffffffffffffffffffffffffff1602179055508173ffffffffffffffffffffffffffffffffffffffff168173ffffffffffffffffffffffffffffffffffffffff167f8be0079c531659141344cd1fd0a4f28419497f9722a3daafe3b4186f6b6457e060405160405180910390a35050565b8173ffffffffffffffffffffffffffffffffffffffff168373ffffffffffffffffffffffffffffffffffffffff161415611694576040517f08c379a000000000000000000000000000000000000000000000000000000000815260040161168b90613156565b60405180910390fd5b80600560008573ffffffffffffffffffffffffffffffffffffffff1673ffffffffffffffffffffffffffffffffffffffff16815260200190815260200160002060008473ffffffffffffffffffffffffffffffffffffffff1673ffffffffffffffffffffffffffffffffffffffff16815260200190815260200160002060006101000a81548160ff0219169083151502179055508173ffffffffffffffffffffffffffffffffffffffff168373ffffffffffffffffffffffffffffffffffffffff167f17307eab39ab6107e8899845ad3d59bd9653f200f220920489ca2b5937696c318360405161178591906122ca565b60405180910390a3505050565b61179d848484610f8c565b6117a984848484611b69565b6117e8576040517f08c379a00000000000000000000000000000000000000000000000000000000081526004016117df906131e8565b60405180910390fd5b50505050565b6060600c80546117fd906128f2565b80601f0160208091040260200160405190810160405280929190818152602001828054611829906128f2565b80156118765780601f1061184b57610100808354040283529160200191611876565b820191906000526020600020905b81548152906001019060200180831161185957829003601f168201915b5050505050905090565b60606000600161188f84611cf1565b01905060008167ffffffffffffffff8111156118ae576118ad612552565b5b6040519080825280601f01601f1916602001820160405280156118e05781602001600182028036833780820191505090505b509050600082602001820190505b60011561194d578080600190039150507f3031323334353637383961626364656600000000000000000000000000000000600a86061a8153600a858161193757611936613208565b5b04945060008514156119485761194d565b6118ee565b819350505050919050565b60007f01ffc9a7000000000000000000000000000000000000000000000000000000007bffffffffffffffffffffffffffffffffffffffffffffffffffffffff1916827bffffffffffffffffffffffffffffffffffffffffffffffffffffffff1916149050919050565b60008073ffffffffffffffffffffffffffffffffffffffff166119e483611304565b73ffffffffffffffffffffffffffffffffffffffff1614159050919050565b611a0f84848484611e44565b6001811115611a53576040517f08c379a0000000000000000000000000000000000000000000000000000000008152600401611a4a906132a9565b60405180910390fd5b6000829050600073ffffffffffffffffffffffffffffffffffffffff168573ffffffffffffffffffffffffffffffffffffffff161415611a9b57611a9681611e4a565b611ada565b8373ffffffffffffffffffffffffffffffffffffffff168573ffffffffffffffffffffffffffffffffffffffff1614611ad957611ad88582611e93565b5b5b600073ffffffffffffffffffffffffffffffffffffffff168473ffffffffffffffffffffffffffffffffffffffff161415611b1d57611b1881612000565b611b5c565b8473ffffffffffffffffffffffffffffffffffffffff168473ffffffffffffffffffffffffffffffffffffffff1614611b5b57611b5a84826120d1565b5b5b5050505050565b50505050565b6000611b8a8473ffffffffffffffffffffffffffffffffffffffff16612150565b15611ce4578373ffffffffffffffffffffffffffffffffffffffff1663150b7a02611bb3610e36565b8786866040518563ffffffff1660e01b8152600401611bd5949392919061331e565b6020604051808303816000875af1925050508015611c1157506040513d601f19601f82011682018060405250810190611c0e919061337f565b60015b611c94573d8060008114611c41576040519150601f19603f3d011682016040523d82523d6000602084013e611c46565b606091505b50600081511415611c8c576040517f08c379a0000000000000000000000000000000000000000000000000000000008152600401611c83906131e8565b60405180910390fd5b805181602001fd5b63150b7a0260e01b7bffffffffffffffffffffffffffffffffffffffffffffffffffffffff1916817bffffffffffffffffffffffffffffffffffffffffffffffffffffffff191614915050611ce9565b600190505b949350505050565b600080600090507a184f03e93ff9f4daa797ed6e38ed64bf6a1f0100000000000000008310611d4f577a184f03e93ff9f4daa797ed6e38ed64bf6a1f0100000000000000008381611d4557611d44613208565b5b0492506040810190505b6d04ee2d6d415b85acef81000000008310611d8c576d04ee2d6d415b85acef81000000008381611d8257611d81613208565b5b0492506020810190505b662386f26fc100008310611dbb57662386f26fc100008381611db157611db0613208565b5b0492506010810190505b6305f5e1008310611de4576305f5e1008381611dda57611dd9613208565b5b0492506008810190505b6127108310611e09576127108381611dff57611dfe613208565b5b0492506004810190505b60648310611e2c5760648381611e2257611e21613208565b5b0492506002810190505b600a8310611e3b576001810190505b80915050919050565b50505050565b6008805490506009600083815260200190815260200160002081905550600881908060018154018082558091505060019003906000526020600020016000909190919091505550565b60006001611ea08461093d565b611eaa91906133ac565b9050600060076000848152602001908152602001600020549050818114611f8f576000600660008673ffffffffffffffffffffffffffffffffffffffff1673ffffffffffffffffffffffffffffffffffffffff168152602001908152602001600020600084815260200190815260200160002054905080600660008773ffffffffffffffffffffffffffffffffffffffff1673ffffffffffffffffffffffffffffffffffffffff168152602001908152602001600020600084815260200190815260200160002081905550816007600083815260200190815260200160002081905550505b6007600084815260200190815260200160002060009055600660008573ffffffffffffffffffffffffffffffffffffffff1673ffffffffffffffffffffffffffffffffffffffff16815260200190815260200160002060008381526020019081526020016000206000905550505050565b6000600160088054905061201491906133ac565b905060006009600084815260200190815260200160002054905060006008838154811061204457612043612bfe565b5b90600052602060002001549050806008838154811061206657612065612bfe565b5b9060005260206000200181905550816009600083815260200190815260200160002081905550600960008581526020019081526020016000206000905560088054806120b5576120b46133e0565b5b6001900381819060005260206000200160009055905550505050565b60006120dc8361093d565b905081600660008573ffffffffffffffffffffffffffffffffffffffff1673ffffffffffffffffffffffffffffffffffffffff168152602001908152602001600020600083815260200190815260200160002081905550806007600084815260200190815260200160002081905550505050565b6000808273ffffffffffffffffffffffffffffffffffffffff163b119050919050565b82805461217f906128f2565b90600052602060002090601f0160209004810192826121a157600085556121e8565b82601f106121ba57805160ff19168380011785556121e8565b828001600101855582156121e8579182015b828111156121e75782518255916020019190600101906121cc565b5b5090506121f591906121f9565b5090565b5b808211156122125760008160009055506001016121fa565b5090565b6000604051905090565b600080fd5b600080fd5b60007fffffffff0000000000000000000000000000000000000000000000000000000082169050919050565b61225f8161222a565b811461226a57600080fd5b50565b60008135905061227c81612256565b92915050565b60006020828403121561229857612297612220565b5b60006122a68482850161226d565b91505092915050565b60008115159050919050565b6122c4816122af565b82525050565b60006020820190506122df60008301846122bb565b92915050565b600081519050919050565b600082825260208201905092915050565b60005b8381101561231f578082015181840152602081019050612304565b8381111561232e576000848401525b50505050565b6000601f19601f8301169050919050565b6000612350826122e5565b61235a81856122f0565b935061236a818560208601612301565b61237381612334565b840191505092915050565b600060208201905081810360008301526123988184612345565b905092915050565b6000819050919050565b6123b3816123a0565b81146123be57600080fd5b50565b6000813590506123d0816123aa565b92915050565b6000602082840312156123ec576123eb612220565b5b60006123fa848285016123c1565b91505092915050565b600073ffffffffffffffffffffffffffffffffffffffff82169050919050565b600061242e82612403565b9050919050565b61243e81612423565b82525050565b60006020820190506124596000830184612435565b92915050565b61246881612423565b811461247357600080fd5b50565b6000813590506124858161245f565b92915050565b600080604083850312156124a2576124a1612220565b5b60006124b085828601612476565b92505060206124c1858286016123c1565b9150509250929050565b6124d4816123a0565b82525050565b60006020820190506124ef60008301846124cb565b92915050565b60008060006060848603121561250e5761250d612220565b5b600061251c86828701612476565b935050602061252d86828701612476565b925050604061253e868287016123c1565b9150509250925092565b600080fd5b600080fd5b7f4e487b7100000000000000000000000000000000000000000000000000000000600052604160045260246000fd5b61258a82612334565b810181811067ffffffffffffffff821117156125a9576125a8612552565b5b80604052505050565b60006125bc612216565b90506125c88282612581565b919050565b600067ffffffffffffffff8211156125e8576125e7612552565b5b6125f182612334565b9050602081019050919050565b82818337600083830152505050565b600061262061261b846125cd565b6125b2565b90508281526020810184848401111561263c5761263b61254d565b5b6126478482856125fe565b509392505050565b600082601f83011261266457612663612548565b5b813561267484826020860161260d565b91505092915050565b60006020828403121561269357612692612220565b5b600082013567ffffffffffffffff8111156126b1576126b0612225565b5b6126bd8482850161264f565b91505092915050565b6000602082840312156126dc576126db612220565b5b60006126ea84828501612476565b91505092915050565b6126fc816122af565b811461270757600080fd5b50565b600081359050612719816126f3565b92915050565b6000806040838503121561273657612735612220565b5b600061274485828601612476565b92505060206127558582860161270a565b9150509250929050565b600067ffffffffffffffff82111561277a57612779612552565b5b61278382612334565b9050602081019050919050565b60006127a361279e8461275f565b6125b2565b9050828152602081018484840111156127bf576127be61254d565b5b6127ca8482856125fe565b509392505050565b600082601f8301126127e7576127e6612548565b5b81356127f7848260208601612790565b91505092915050565b6000806000806080858703121561281a57612819612220565b5b600061282887828801612476565b945050602061283987828801612476565b935050604061284a878288016123c1565b925050606085013567ffffffffffffffff81111561286b5761286a612225565b5b612877878288016127d2565b91505092959194509250565b6000806040838503121561289a57612899612220565b5b60006128a885828601612476565b92505060206128b985828601612476565b9150509250929050565b7f4e487b7100000000000000000000000000000000000000000000000000000000600052602260045260246000fd5b6000600282049050600182168061290a57607f821691505b6020821081141561291e5761291d6128c3565b5b50919050565b7f4552433732313a20617070726f76616c20746f2063757272656e74206f776e6560008201527f7200000000000000000000000000000000000000000000000000000000000000602082015250565b60006129806021836122f0565b915061298b82612924565b604082019050919050565b600060208201905081810360008301526129af81612973565b9050919050565b7f4552433732313a20617070726f76652063616c6c6572206973206e6f7420746f60008201527f6b656e206f776e6572206f7220617070726f76656420666f7220616c6c000000602082015250565b6000612a12603d836122f0565b9150612a1d826129b6565b604082019050919050565b60006020820190508181036000830152612a4181612a05565b9050919050565b7f4552433732313a2063616c6c6572206973206e6f7420746f6b656e206f776e6560008201527f72206f7220617070726f76656400000000000000000000000000000000000000602082015250565b6000612aa4602d836122f0565b9150612aaf82612a48565b604082019050919050565b60006020820190508181036000830152612ad381612a97565b9050919050565b7f455243373231456e756d657261626c653a206f776e657220696e646578206f7560008201527f74206f6620626f756e6473000000000000000000000000000000000000000000602082015250565b6000612b36602b836122f0565b9150612b4182612ada565b604082019050919050565b60006020820190508181036000830152612b6581612b29565b9050919050565b7f455243373231456e756d657261626c653a20676c6f62616c20696e646578206f60008201527f7574206f6620626f756e64730000000000000000000000000000000000000000602082015250565b6000612bc8602c836122f0565b9150612bd382612b6c565b604082019050919050565b60006020820190508181036000830152612bf781612bbb565b9050919050565b7f4e487b7100000000000000000000000000000000000000000000000000000000600052603260045260246000fd5b7f4552433732313a20696e76616c696420746f6b656e2049440000000000000000600082015250565b6000612c636018836122f0565b9150612c6e82612c2d565b602082019050919050565b60006020820190508181036000830152612c9281612c56565b9050919050565b7f4e487b7100000000000000000000000000000000000000000000000000000000600052601160045260246000fd5b6000612cd3826123a0565b9150612cde836123a0565b9250827fffffffffffffffffffffffffffffffffffffffffffffffffffffffffffffffff03821115612d1357612d12612c99565b5b828201905092915050565b7f4552433732313a2061646472657373207a65726f206973206e6f74206120766160008201527f6c6964206f776e65720000000000000000000000000000000000000000000000602082015250565b6000612d7a6029836122f0565b9150612d8582612d1e565b604082019050919050565b60006020820190508181036000830152612da981612d6d565b9050919050565b600081905092915050565b6000612dc6826122e5565b612dd08185612db0565b9350612de0818560208601612301565b80840191505092915050565b6000612df88285612dbb565b9150612e048284612dbb565b91508190509392505050565b7f4f776e61626c653a206e6577206f776e657220697320746865207a65726f206160008201527f6464726573730000000000000000000000000000000000000000000000000000602082015250565b6000612e6c6026836122f0565b9150612e7782612e10565b604082019050919050565b60006020820190508181036000830152612e9b81612e5f565b9050919050565b7f4552433732313a207472616e736665722066726f6d20696e636f72726563742060008201527f6f776e6572000000000000000000000000000000000000000000000000000000602082015250565b6000612efe6025836122f0565b9150612f0982612ea2565b604082019050919050565b60006020820190508181036000830152612f2d81612ef1565b9050919050565b7f4552433732313a207472616e7366657220746f20746865207a65726f2061646460008201527f7265737300000000000000000000000000000000000000000000000000000000602082015250565b6000612f906024836122f0565b9150612f9b82612f34565b604082019050919050565b60006020820190508181036000830152612fbf81612f83565b9050919050565b7f4f776e61626c653a2063616c6c6572206973206e6f7420746865206f776e6572600082015250565b6000612ffc6020836122f0565b915061300782612fc6565b602082019050919050565b6000602082019050818103600083015261302b81612fef565b9050919050565b7f4552433732313a206d696e7420746f20746865207a65726f2061646472657373600082015250565b60006130686020836122f0565b915061307382613032565b602082019050919050565b600060208201905081810360008301526130978161305b565b9050919050565b7f4552433732313a20746f6b656e20616c7265616479206d696e74656400000000600082015250565b60006130d4601c836122f0565b91506130df8261309e565b602082019050919050565b60006020820190508181036000830152613103816130c7565b9050919050565b7f4552433732313a20617070726f766520746f2063616c6c657200000000000000600082015250565b60006131406019836122f0565b915061314b8261310a565b602082019050919050565b6000602082019050818103600083015261316f81613133565b9050919050565b7f4552433732313a207472616e7366657220746f206e6f6e20455243373231526560008201527f63656976657220696d706c656d656e7465720000000000000000000000000000602082015250565b60006131d26032836122f0565b91506131dd82613176565b604082019050919050565b60006020820190508181036000830152613201816131c5565b9050919050565b7f4e487b7100000000000000000000000000000000000000000000000000000000600052601260045260246000fd5b7f455243373231456e756d657261626c653a20636f6e736563757469766520747260008201527f616e7366657273206e6f7420737570706f727465640000000000000000000000602082015250565b60006132936035836122f0565b915061329e82613237565b604082019050919050565b600060208201905081810360008301526132c281613286565b9050919050565b600081519050919050565b600082825260208201905092915050565b60006132f0826132c9565b6132fa81856132d4565b935061330a818560208601612301565b61331381612334565b840191505092915050565b60006080820190506133336000830187612435565b6133406020830186612435565b61334d60408301856124cb565b818103606083015261335f81846132e5565b905095945050505050565b60008151905061337981612256565b92915050565b60006020828403121561339557613394612220565b5b60006133a38482850161336a565b91505092915050565b60006133b7826123a0565b91506133c2836123a0565b9250828210156133d5576133d4612c99565b5b828203905092915050565b7f4e487b7100000000000000000000000000000000000000000000000000000000600052603160045260246000fdfea264697066735822122011d9ce0c68a85f9069d33a75128c20f90eacc7f57778ac84a3210dbeb52b795264736f6c634300080c0033",
  "immutableReferences": {},
  "source": "// SPDX-License-Identifier: MIT\npragma solidity >=0.4.22 <0.9.0;\n\nimport \"@openzeppelin/contracts/token/ERC721/extensions/ERC721Enumerable.sol\";\nimport \"@openzeppelin/contracts/access/Ownable.sol\";\n\ncontract KudosMinter is ERC721Enumerable, Ownable {\n    address private _minter;\n    string private _baseURIStorage;\n\n    constructor() ERC721(\"Kudos\", \"KUDO\") {\n        _baseURIStorage = \"https://test.com\";\n        _minter = 0x1C9e4a7636ea865c8D3476722bC93CADFD37eAd1;\n    }\n\n    function mint(address reciever) public returns (uint256) {\n        _mint(reciever, totalSupply() + 1);\n        return totalSupply();\n    }\n\n    function _baseURI() internal view override returns (string memory) {\n        return _baseURIStorage;\n    }\n\n    // ** Only Owner Functions **\n\n    function setMinter(address newMinter) external onlyOwner {\n        _minter = newMinter;\n    }\n\n    function setBaseURI(string memory baseURIStorage) external onlyOwner {\n        _baseURIStorage = baseURIStorage;\n    }\n}\n",
  "sourcePath": "/home/pavel/git/kudosMinter/blockchain/contracts/KudosMinter.sol",
  "compiler": {
    "name": "solc",
    "version": "0.8.12+commit.f00d7308.Emscripten.clang"
  },
  "schemaVersion": "3.4.5",
  "updatedAt": "2023-06-10T07:37:00.812Z",
  "networkType": "ethereum",
  "devdoc": {
    "kind": "dev",
    "methods": {
      "approve(address,uint256)": {
        "details": "See {IERC721-approve}."
      },
      "balanceOf(address)": {
        "details": "See {IERC721-balanceOf}."
      },
      "getApproved(uint256)": {
        "details": "See {IERC721-getApproved}."
      },
      "isApprovedForAll(address,address)": {
        "details": "See {IERC721-isApprovedForAll}."
      },
      "name()": {
        "details": "See {IERC721Metadata-name}."
      },
      "owner()": {
        "details": "Returns the address of the current owner."
      },
      "ownerOf(uint256)": {
        "details": "See {IERC721-ownerOf}."
      },
      "renounceOwnership()": {
        "details": "Leaves the contract without owner. It will not be possible to call `onlyOwner` functions. Can only be called by the current owner. NOTE: Renouncing ownership will leave the contract without an owner, thereby disabling any functionality that is only available to the owner."
      },
      "safeTransferFrom(address,address,uint256)": {
        "details": "See {IERC721-safeTransferFrom}."
      },
      "safeTransferFrom(address,address,uint256,bytes)": {
        "details": "See {IERC721-safeTransferFrom}."
      },
      "setApprovalForAll(address,bool)": {
        "details": "See {IERC721-setApprovalForAll}."
      },
      "supportsInterface(bytes4)": {
        "details": "See {IERC165-supportsInterface}."
      },
      "symbol()": {
        "details": "See {IERC721Metadata-symbol}."
      },
      "tokenByIndex(uint256)": {
        "details": "See {IERC721Enumerable-tokenByIndex}."
      },
      "tokenOfOwnerByIndex(address,uint256)": {
        "details": "See {IERC721Enumerable-tokenOfOwnerByIndex}."
      },
      "tokenURI(uint256)": {
        "details": "See {IERC721Metadata-tokenURI}."
      },
      "totalSupply()": {
        "details": "See {IERC721Enumerable-totalSupply}."
      },
      "transferFrom(address,address,uint256)": {
        "details": "See {IERC721-transferFrom}."
      },
      "transferOwnership(address)": {
        "details": "Transfers ownership of the contract to a new account (`newOwner`). Can only be called by the current owner."
      }
    },
    "version": 1
  },
  "userdoc": {
    "kind": "user",
    "methods": {},
    "version": 1
  }
}